:100000000201BCD2A7C2A922D2A9220203B5C2A76B
:10001000C2A922020411D2AAD28A220203C875F010
:1000200008758200EF2FFFEE33FECD33CDCC33CCFD
:10003000C58233C5829BED9AEC99E58298400CF518
:1000400082EE9BFEED9AFDEC99FC0FD5F0D6E4CE46
:10005000FBE4CDFAE4CCF9A88222B800C1B900597A
:10006000BA002DEC8BF084CFCECDFCE5F0CBF97847
:1000700018EF2FFFEE33FEED33FDEC33FCEB33FBDB
:1000800010D703994004EB99FB0FD8E5E4F9FA2265
:100090007818EF2FFFEE33FEED33FDEC33FCC93360
:1000A000C910D7059BE99A4007EC9BFCE99AF90F28
:1000B000D8E0E4C9FAE4CCFB2275F010EF2FFFEE94
:1000C00033FEED33FDCC33CCC833C810D7079BECDF
:1000D0009AE899400AED9BFDEC9AFCE899F80FD557
:1000E000F0DAE4CDFBE4CCFAE4C8F922E86010ECE5
:1000F000A2E713FCED13FDEE13FEEF13FFD8F02281
:10010000EC8EF0A4CCC5F0CCCDF8EFA4CEC5F02D8C
:10011000FDE43CFCE8A42EC8C5F03DFDE43CFCEF4A
:10012000A4FFE5F028FEE43DFDE43CFC225389F009
:100130004389018E0B8F0C7C007D32120100E47B21
:1001400064FAF9F812005A8E178F18C3E50C951847
:10015000F50FE50B9517F50EAB07AA06E4C39BFF59
:10016000E49AFE74019400FDE49400FC7808120007
:10017000EC8F0DE4C39BFFE48F1BAE0EAF0FAB07FC
:10018000AA06C39BFFE49AFE74019400FDE4940068
:10019000FC78081200EC8F09E4C39BFFE49AFE741C
:1001A000019400FDE49400FCE48F1320AF02D2AF71
:1001B000120008850D8C851B8AD28C22787FE4F68C
:1001C000D8FD75811C0202030202CCE493A3F8E47B
:1001D00093A34003F68001F208DFF48029E493A39F
:1001E000F85407240CC8C333C4540F4420C88340B8
:1001F00004F456800146F6DFE4800B010204081087
:10020000204080900415E47E019360BCA3FF543F1E
:1002100030E509541FFEE493A360010ECF54C025BE
:10022000E060A840B8E493A3FAE493A3F8E493A3AE
:10023000C8C582C8CAC583CAF0A3C8C582C8CAC512
:1002400083CADFE9DEE780BEE4FDFCC3ED9FEC9EE0
:100250005079E4FBFA0000000000000000000000FC
:10026000000000000000000000000000000000008E
:10027000000000000000000000000000000000007E
:10028000000000000000000000000000000000006E
:10029000000000000000000000000000000000005E
:1002A000000000000000000000000000000000004E
:1002B0000000000000000000000BBB00010AEB641E
:1002C0000A4A70910DBD00010C8080227590FFC21A
:1002D000A7C2A612034975157F7516FF7FC47E0954
:1002E000120248AF16AE1512012D1200161203EDC0
:1002F0002095151203E41200037FEE7E02120248DD
:1003000012000812040880322096151203E412002D
:10031000037FEE7E021202481200081203FF801AC9
:100320003097093091063092032093051203DB8049
:10033000062094061203F6120003E50860B2E4F505
:10034000081203DB12000380A753890F438910753D
:100350001900751A0174FFF511F512AE19AF1AAB39
:1003600007AA06E4C39BFFE49AFE74019400FDE42F
:100370009400FC78081200EC8F10E4C39BFFE48F1C
:100380001CAE11AF12AB07AA06C39BFFE49AFE7422
:10039000019400FDE49400FC78081200EC8F0AE45C
:1003A000C39BFF8F1420AF02D2AFD2AB85108D85D7
:1003B0001C8BD28E22B2A720A70785098C85138AB1
:1003C00032850D8C851B8A32B2A620A607850A8D40
:1003D00085148B3285108D851C8B32D2A0C2A1D2A0
:1003E000A2C2A322C2A0D2A1C2A2D2A322C2A0D2E0
:1003F000A1D2A2C2A322D2A0C2A1C2A2D2A322C2CF
:10040000A0C2A1D2A2C2A322D2A0C2A1C2A2C2A350
:0F041000227508013201080000C28C22C28E2220
:00000001FF
